{
  "_format": "hh-sol-artifact-1",
  "contractName": "SpaceExplorersNFT",
  "sourceName": "contracts/SpaceExplorersNFT.sol",
  "abi": [
    {
      "inputs": [],
      "stateMutability": "nonpayable",
      "type": "constructor"
    },
    {
      "inputs": [],
      "name": "ApprovalCallerNotOwnerNorApproved",
      "type": "error"
    },
    {
      "inputs": [],
      "name": "ApprovalQueryForNonexistentToken",
      "type": "error"
    },
    {
      "inputs": [],
      "name": "BalanceQueryForZeroAddress",
      "type": "error"
    },
    {
      "inputs": [],
      "name": "MintERC2309QuantityExceedsLimit",
      "type": "error"
    },
    {
      "inputs": [],
      "name": "MintToZeroAddress",
      "type": "error"
    },
    {
      "inputs": [],
      "name": "MintZeroQuantity",
      "type": "error"
    },
    {
      "inputs": [],
      "name": "OwnerQueryForNonexistentToken",
      "type": "error"
    },
    {
      "inputs": [],
      "name": "OwnershipNotInitializedForExtraData",
      "type": "error"
    },
    {
      "inputs": [],
      "name": "TransferCallerNotOwnerNorApproved",
      "type": "error"
    },
    {
      "inputs": [],
      "name": "TransferFromIncorrectOwner",
      "type": "error"
    },
    {
      "inputs": [],
      "name": "TransferToNonERC721ReceiverImplementer",
      "type": "error"
    },
    {
      "inputs": [],
      "name": "TransferToZeroAddress",
      "type": "error"
    },
    {
      "inputs": [],
      "name": "URIQueryForNonexistentToken",
      "type": "error"
    },
    {
      "anonymous": false,
      "inputs": [
        {
          "indexed": true,
          "internalType": "address",
          "name": "owner",
          "type": "address"
        },
        {
          "indexed": true,
          "internalType": "address",
          "name": "approved",
          "type": "address"
        },
        {
          "indexed": true,
          "internalType": "uint256",
          "name": "tokenId",
          "type": "uint256"
        }
      ],
      "name": "Approval",
      "type": "event"
    },
    {
      "anonymous": false,
      "inputs": [
        {
          "indexed": true,
          "internalType": "address",
          "name": "owner",
          "type": "address"
        },
        {
          "indexed": true,
          "internalType": "address",
          "name": "operator",
          "type": "address"
        },
        {
          "indexed": false,
          "internalType": "bool",
          "name": "approved",
          "type": "bool"
        }
      ],
      "name": "ApprovalForAll",
      "type": "event"
    },
    {
      "anonymous": false,
      "inputs": [
        {
          "indexed": true,
          "internalType": "uint256",
          "name": "fromTokenId",
          "type": "uint256"
        },
        {
          "indexed": false,
          "internalType": "uint256",
          "name": "toTokenId",
          "type": "uint256"
        },
        {
          "indexed": true,
          "internalType": "address",
          "name": "from",
          "type": "address"
        },
        {
          "indexed": true,
          "internalType": "address",
          "name": "to",
          "type": "address"
        }
      ],
      "name": "ConsecutiveTransfer",
      "type": "event"
    },
    {
      "anonymous": false,
      "inputs": [
        {
          "indexed": true,
          "internalType": "address",
          "name": "from",
          "type": "address"
        },
        {
          "indexed": true,
          "internalType": "address",
          "name": "to",
          "type": "address"
        },
        {
          "indexed": true,
          "internalType": "uint256",
          "name": "tokenId",
          "type": "uint256"
        }
      ],
      "name": "Transfer",
      "type": "event"
    },
    {
      "inputs": [
        {
          "internalType": "address",
          "name": "to",
          "type": "address"
        },
        {
          "internalType": "uint256",
          "name": "tokenId",
          "type": "uint256"
        }
      ],
      "name": "approve",
      "outputs": [],
      "stateMutability": "payable",
      "type": "function"
    },
    {
      "inputs": [
        {
          "internalType": "address",
          "name": "owner",
          "type": "address"
        }
      ],
      "name": "balanceOf",
      "outputs": [
        {
          "internalType": "uint256",
          "name": "",
          "type": "uint256"
        }
      ],
      "stateMutability": "view",
      "type": "function"
    },
    {
      "inputs": [
        {
          "internalType": "uint256",
          "name": "tokenId",
          "type": "uint256"
        }
      ],
      "name": "getApproved",
      "outputs": [
        {
          "internalType": "address",
          "name": "",
          "type": "address"
        }
      ],
      "stateMutability": "view",
      "type": "function"
    },
    {
      "inputs": [],
      "name": "getPromptDescription",
      "outputs": [
        {
          "internalType": "string",
          "name": "",
          "type": "string"
        }
      ],
      "stateMutability": "view",
      "type": "function"
    },
    {
      "inputs": [
        {
          "internalType": "address",
          "name": "owner",
          "type": "address"
        },
        {
          "internalType": "address",
          "name": "operator",
          "type": "address"
        }
      ],
      "name": "isApprovedForAll",
      "outputs": [
        {
          "internalType": "bool",
          "name": "",
          "type": "bool"
        }
      ],
      "stateMutability": "view",
      "type": "function"
    },
    {
      "inputs": [],
      "name": "maxQuantity",
      "outputs": [
        {
          "internalType": "uint256",
          "name": "",
          "type": "uint256"
        }
      ],
      "stateMutability": "view",
      "type": "function"
    },
    {
      "inputs": [
        {
          "internalType": "address",
          "name": "to",
          "type": "address"
        },
        {
          "internalType": "uint256",
          "name": "tokenId",
          "type": "uint256"
        }
      ],
      "name": "mint",
      "outputs": [],
      "stateMutability": "nonpayable",
      "type": "function"
    },
    {
      "inputs": [],
      "name": "name",
      "outputs": [
        {
          "internalType": "string",
          "name": "",
          "type": "string"
        }
      ],
      "stateMutability": "view",
      "type": "function"
    },
    {
      "inputs": [],
      "name": "owner",
      "outputs": [
        {
          "internalType": "address",
          "name": "",
          "type": "address"
        }
      ],
      "stateMutability": "view",
      "type": "function"
    },
    {
      "inputs": [
        {
          "internalType": "uint256",
          "name": "tokenId",
          "type": "uint256"
        }
      ],
      "name": "ownerOf",
      "outputs": [
        {
          "internalType": "address",
          "name": "",
          "type": "address"
        }
      ],
      "stateMutability": "view",
      "type": "function"
    },
    {
      "inputs": [],
      "name": "prompt",
      "outputs": [
        {
          "internalType": "string",
          "name": "",
          "type": "string"
        }
      ],
      "stateMutability": "view",
      "type": "function"
    },
    {
      "inputs": [
        {
          "internalType": "address",
          "name": "from",
          "type": "address"
        },
        {
          "internalType": "address",
          "name": "to",
          "type": "address"
        },
        {
          "internalType": "uint256",
          "name": "tokenId",
          "type": "uint256"
        }
      ],
      "name": "safeTransferFrom",
      "outputs": [],
      "stateMutability": "payable",
      "type": "function"
    },
    {
      "inputs": [
        {
          "internalType": "address",
          "name": "from",
          "type": "address"
        },
        {
          "internalType": "address",
          "name": "to",
          "type": "address"
        },
        {
          "internalType": "uint256",
          "name": "tokenId",
          "type": "uint256"
        },
        {
          "internalType": "bytes",
          "name": "_data",
          "type": "bytes"
        }
      ],
      "name": "safeTransferFrom",
      "outputs": [],
      "stateMutability": "payable",
      "type": "function"
    },
    {
      "inputs": [
        {
          "internalType": "address",
          "name": "operator",
          "type": "address"
        },
        {
          "internalType": "bool",
          "name": "approved",
          "type": "bool"
        }
      ],
      "name": "setApprovalForAll",
      "outputs": [],
      "stateMutability": "nonpayable",
      "type": "function"
    },
    {
      "inputs": [
        {
          "internalType": "bytes4",
          "name": "interfaceId",
          "type": "bytes4"
        }
      ],
      "name": "supportsInterface",
      "outputs": [
        {
          "internalType": "bool",
          "name": "",
          "type": "bool"
        }
      ],
      "stateMutability": "view",
      "type": "function"
    },
    {
      "inputs": [],
      "name": "symbol",
      "outputs": [
        {
          "internalType": "string",
          "name": "",
          "type": "string"
        }
      ],
      "stateMutability": "view",
      "type": "function"
    },
    {
      "inputs": [
        {
          "internalType": "uint256",
          "name": "tokenId",
          "type": "uint256"
        }
      ],
      "name": "tokenURI",
      "outputs": [
        {
          "internalType": "string",
          "name": "",
          "type": "string"
        }
      ],
      "stateMutability": "view",
      "type": "function"
    },
    {
      "inputs": [],
      "name": "totalSupply",
      "outputs": [
        {
          "internalType": "uint256",
          "name": "",
          "type": "uint256"
        }
      ],
      "stateMutability": "view",
      "type": "function"
    },
    {
      "inputs": [
        {
          "internalType": "address",
          "name": "from",
          "type": "address"
        },
        {
          "internalType": "address",
          "name": "to",
          "type": "address"
        },
        {
          "internalType": "uint256",
          "name": "tokenId",
          "type": "uint256"
        }
      ],
      "name": "transferFrom",
      "outputs": [],
      "stateMutability": "payable",
      "type": "function"
    }
  ],
  "bytecode": "0x60806040526040518060800160405280605181526020016200230c60519139600990805190602001906200003592919062000199565b506040518060400160405280601a81526020017f456d6261726b206f6e206120636f736d6963206a6f75726e6579000000000000815250600a90805190602001906200008392919062000199565b506064600b553480156200009657600080fd5b506040518060400160405280601181526020017f53706163654578706c6f726572734e46540000000000000000000000000000008152506040518060400160405280600581526020017f53454e465400000000000000000000000000000000000000000000000000000081525081600290805190602001906200011b92919062000199565b5080600390805190602001906200013492919062000199565b50620001456200019460201b60201c565b600081905550505033600860006101000a81548173ffffffffffffffffffffffffffffffffffffffff021916908373ffffffffffffffffffffffffffffffffffffffff160217905550620002ae565b600090565b828054620001a79062000278565b90600052602060002090601f016020900481019282620001cb576000855562000217565b82601f10620001e657805160ff191683800117855562000217565b8280016001018555821562000217579182015b8281111562000216578251825591602001919060010190620001f9565b5b5090506200022691906200022a565b5090565b5b80821115620002455760008160009055506001016200022b565b5090565b7f4e487b7100000000000000000000000000000000000000000000000000000000600052602260045260246000fd5b600060028204905060018216806200029157607f821691505b60208210811415620002a857620002a762000249565b5b50919050565b61204e80620002be6000396000f3fe6080604052600436106101145760003560e01c806370a08231116100a0578063a22cb46511610064578063a22cb4651461038c578063b88d4fde146103b5578063c87b56dd146103d1578063e640cf7d1461040e578063e985e9c51461043957610114565b806370a08231146102a35780637c65d711146102e05780638da5cb5b1461030b57806395d89b411461033657806399dbf5701461036157610114565b806318160ddd116100e757806318160ddd146101da57806323b872dd1461020557806340c10f191461022157806342842e0e1461024a5780636352211e1461026657610114565b806301ffc9a71461011957806306fdde0314610156578063081812fc14610181578063095ea7b3146101be575b600080fd5b34801561012557600080fd5b50610140600480360381019061013b919061179a565b610476565b60405161014d91906117e2565b60405180910390f35b34801561016257600080fd5b5061016b610508565b6040516101789190611896565b60405180910390f35b34801561018d57600080fd5b506101a860048036038101906101a391906118ee565b61059a565b6040516101b5919061195c565b60405180910390f35b6101d860048036038101906101d391906119a3565b610619565b005b3480156101e657600080fd5b506101ef61075d565b6040516101fc91906119f2565b60405180910390f35b61021f600480360381019061021a9190611a0d565b610774565b005b34801561022d57600080fd5b50610248600480360381019061024391906119a3565b610a99565b005b610264600480360381019061025f9190611a0d565b610b8f565b005b34801561027257600080fd5b5061028d600480360381019061028891906118ee565b610baf565b60405161029a919061195c565b60405180910390f35b3480156102af57600080fd5b506102ca60048036038101906102c59190611a60565b610bc1565b6040516102d791906119f2565b60405180910390f35b3480156102ec57600080fd5b506102f5610c7a565b6040516103029190611896565b60405180910390f35b34801561031757600080fd5b50610320610d08565b60405161032d919061195c565b60405180910390f35b34801561034257600080fd5b5061034b610d2e565b6040516103589190611896565b60405180910390f35b34801561036d57600080fd5b50610376610dc0565b6040516103839190611896565b60405180910390f35b34801561039857600080fd5b506103b360048036038101906103ae9190611ab9565b610e52565b005b6103cf60048036038101906103ca9190611c2e565b610f5d565b005b3480156103dd57600080fd5b506103f860048036038101906103f391906118ee565b610fd0565b6040516104059190611896565b60405180910390f35b34801561041a57600080fd5b5061042361106f565b60405161043091906119f2565b60405180910390f35b34801561044557600080fd5b50610460600480360381019061045b9190611cb1565b611075565b60405161046d91906117e2565b60405180910390f35b60006301ffc9a760e01b827bffffffffffffffffffffffffffffffffffffffffffffffffffffffff191614806104d157506380ac58cd60e01b827bffffffffffffffffffffffffffffffffffffffffffffffffffffffff1916145b806105015750635b5e139f60e01b827bffffffffffffffffffffffffffffffffffffffffffffffffffffffff1916145b9050919050565b60606002805461051790611d20565b80601f016020809104026020016040519081016040528092919081815260200182805461054390611d20565b80156105905780601f1061056557610100808354040283529160200191610590565b820191906000526020600020905b81548152906001019060200180831161057357829003601f168201915b5050505050905090565b60006105a582611109565b6105db576040517fcf4700e400000000000000000000000000000000000000000000000000000000815260040160405180910390fd5b6006600083815260200190815260200160002060000160009054906101000a900473ffffffffffffffffffffffffffffffffffffffff169050919050565b600061062482610baf565b90508073ffffffffffffffffffffffffffffffffffffffff16610645611168565b73ffffffffffffffffffffffffffffffffffffffff16146106a8576106718161066c611168565b611075565b6106a7576040517fcfb3b94200000000000000000000000000000000000000000000000000000000815260040160405180910390fd5b5b826006600084815260200190815260200160002060000160006101000a81548173ffffffffffffffffffffffffffffffffffffffff021916908373ffffffffffffffffffffffffffffffffffffffff160217905550818373ffffffffffffffffffffffffffffffffffffffff168273ffffffffffffffffffffffffffffffffffffffff167f8c5be1e5ebec7d5bd14f71427d1e84f3dd0314c0f7b2291e5b200ac8c7c3b92560405160405180910390a4505050565b6000610767611170565b6001546000540303905090565b600061077f82611175565b90508373ffffffffffffffffffffffffffffffffffffffff168173ffffffffffffffffffffffffffffffffffffffff16146107e6576040517fa114810000000000000000000000000000000000000000000000000000000000815260040160405180910390fd5b6000806107f284611243565b915091506108088187610803611168565b61126a565b6108545761081d86610818611168565b611075565b610853576040517f59c896be00000000000000000000000000000000000000000000000000000000815260040160405180910390fd5b5b600073ffffffffffffffffffffffffffffffffffffffff168573ffffffffffffffffffffffffffffffffffffffff1614156108bb576040517fea553b3400000000000000000000000000000000000000000000000000000000815260040160405180910390fd5b6108c886868660016112ae565b80156108d357600082555b600560008773ffffffffffffffffffffffffffffffffffffffff1673ffffffffffffffffffffffffffffffffffffffff168152602001908152602001600020600081546001900391905081905550600560008673ffffffffffffffffffffffffffffffffffffffff1673ffffffffffffffffffffffffffffffffffffffff16815260200190815260200160002060008154600101919050819055506109a18561097d8888876112b4565b7c0200000000000000000000000000000000000000000000000000000000176112dc565b600460008681526020019081526020016000208190555060007c020000000000000000000000000000000000000000000000000000000084161415610a29576000600185019050600060046000838152602001908152602001600020541415610a27576000548114610a26578360046000838152602001908152602001600020819055505b5b505b838573ffffffffffffffffffffffffffffffffffffffff168773ffffffffffffffffffffffffffffffffffffffff167fddf252ad1be2c89b69c2b068fc378daa952ba7f163c4a11628f55a4df523b3ef60405160405180910390a4610a918686866001611307565b505050505050565b600860009054906101000a900473ffffffffffffffffffffffffffffffffffffffff1673ffffffffffffffffffffffffffffffffffffffff163373ffffffffffffffffffffffffffffffffffffffff1614610b29576040517f08c379a0000000000000000000000000000000000000000000000000000000008152600401610b2090611dc4565b60405180910390fd5b600b546001610b3661075d565b610b409190611e13565b1115610b81576040517f08c379a0000000000000000000000000000000000000000000000000000000008152600401610b7890611eb5565b60405180910390fd5b610b8b828261130d565b5050565b610baa83838360405180602001604052806000815250610f5d565b505050565b6000610bba82611175565b9050919050565b60008073ffffffffffffffffffffffffffffffffffffffff168273ffffffffffffffffffffffffffffffffffffffff161415610c29576040517f8f4eb60400000000000000000000000000000000000000000000000000000000815260040160405180910390fd5b67ffffffffffffffff600560008473ffffffffffffffffffffffffffffffffffffffff1673ffffffffffffffffffffffffffffffffffffffff16815260200190815260200160002054169050919050565b600a8054610c8790611d20565b80601f0160208091040260200160405190810160405280929190818152602001828054610cb390611d20565b8015610d005780601f10610cd557610100808354040283529160200191610d00565b820191906000526020600020905b815481529060010190602001808311610ce357829003601f168201915b505050505081565b600860009054906101000a900473ffffffffffffffffffffffffffffffffffffffff1681565b606060038054610d3d90611d20565b80601f0160208091040260200160405190810160405280929190818152602001828054610d6990611d20565b8015610db65780601f10610d8b57610100808354040283529160200191610db6565b820191906000526020600020905b815481529060010190602001808311610d9957829003601f168201915b5050505050905090565b6060600a8054610dcf90611d20565b80601f0160208091040260200160405190810160405280929190818152602001828054610dfb90611d20565b8015610e485780601f10610e1d57610100808354040283529160200191610e48565b820191906000526020600020905b815481529060010190602001808311610e2b57829003601f168201915b5050505050905090565b8060076000610e5f611168565b73ffffffffffffffffffffffffffffffffffffffff1673ffffffffffffffffffffffffffffffffffffffff16815260200190815260200160002060008473ffffffffffffffffffffffffffffffffffffffff1673ffffffffffffffffffffffffffffffffffffffff16815260200190815260200160002060006101000a81548160ff0219169083151502179055508173ffffffffffffffffffffffffffffffffffffffff16610f0c611168565b73ffffffffffffffffffffffffffffffffffffffff167f17307eab39ab6107e8899845ad3d59bd9653f200f220920489ca2b5937696c3183604051610f5191906117e2565b60405180910390a35050565b610f68848484610774565b60008373ffffffffffffffffffffffffffffffffffffffff163b14610fca57610f93848484846114ca565b610fc9576040517fd1a57ed600000000000000000000000000000000000000000000000000000000815260040160405180910390fd5b5b50505050565b6060610fdb82611109565b611011576040517fa14c4b5000000000000000000000000000000000000000000000000000000000815260040160405180910390fd5b600061101b61162a565b905060008151141561103c5760405180602001604052806000815250611067565b80611046846116bc565b604051602001611057929190611f11565b6040516020818303038152906040525b915050919050565b600b5481565b6000600760008473ffffffffffffffffffffffffffffffffffffffff1673ffffffffffffffffffffffffffffffffffffffff16815260200190815260200160002060008373ffffffffffffffffffffffffffffffffffffffff1673ffffffffffffffffffffffffffffffffffffffff16815260200190815260200160002060009054906101000a900460ff16905092915050565b600081611114611170565b11158015611123575060005482105b8015611161575060007c0100000000000000000000000000000000000000000000000000000000600460008581526020019081526020016000205416145b9050919050565b600033905090565b600090565b60008082905080611184611170565b1161120c5760005481101561120b5760006004600083815260200190815260200160002054905060007c010000000000000000000000000000000000000000000000000000000082161415611209575b60008114156111ff5760046000836001900393508381526020019081526020016000205490506111d4565b809250505061123e565b505b5b6040517fdf2d9b4200000000000000000000000000000000000000000000000000000000815260040160405180910390fd5b919050565b60008060006006600085815260200190815260200160002090508092508254915050915091565b600073ffffffffffffffffffffffffffffffffffffffff8316925073ffffffffffffffffffffffffffffffffffffffff821691508382148383141790509392505050565b50505050565b60008060e883901c905060e86112cb868684611715565b62ffffff16901b9150509392505050565b600073ffffffffffffffffffffffffffffffffffffffff83169250814260a01b178317905092915050565b50505050565b600080549050600082141561134e576040517fb562e8dd00000000000000000000000000000000000000000000000000000000815260040160405180910390fd5b61135b60008483856112ae565b600160406001901b178202600560008573ffffffffffffffffffffffffffffffffffffffff1673ffffffffffffffffffffffffffffffffffffffff168152602001908152602001600020600082825401925050819055506113d2836113c360008660006112b4565b6113cc8561171e565b176112dc565b6004600083815260200190815260200160002081905550600080838301905073ffffffffffffffffffffffffffffffffffffffff85169150828260007fddf252ad1be2c89b69c2b068fc378daa952ba7f163c4a11628f55a4df523b3ef600080a4600183015b81811461147357808360007fddf252ad1be2c89b69c2b068fc378daa952ba7f163c4a11628f55a4df523b3ef600080a4600181019050611438565b5060008214156114af576040517f2e07630000000000000000000000000000000000000000000000000000000000815260040160405180910390fd5b8060008190555050506114c56000848385611307565b505050565b60008373ffffffffffffffffffffffffffffffffffffffff1663150b7a026114f0611168565b8786866040518563ffffffff1660e01b81526004016115129493929190611f8a565b602060405180830381600087803b15801561152c57600080fd5b505af192505050801561155d57506040513d601f19601f8201168201806040525081019061155a9190611feb565b60015b6115d7573d806000811461158d576040519150601f19603f3d011682016040523d82523d6000602084013e611592565b606091505b506000815114156115cf576040517fd1a57ed600000000000000000000000000000000000000000000000000000000815260040160405180910390fd5b805181602001fd5b63150b7a0260e01b7bffffffffffffffffffffffffffffffffffffffffffffffffffffffff1916817bffffffffffffffffffffffffffffffffffffffffffffffffffffffff191614915050949350505050565b60606009805461163990611d20565b80601f016020809104026020016040519081016040528092919081815260200182805461166590611d20565b80156116b25780601f10611687576101008083540402835291602001916116b2565b820191906000526020600020905b81548152906001019060200180831161169557829003601f168201915b5050505050905090565b606060a060405101806040526020810391506000825281835b60011561170057600184039350600a81066030018453600a81049050806116fb57611700565b6116d5565b50828103602084039350808452505050919050565b60009392505050565b60006001821460e11b9050919050565b6000604051905090565b600080fd5b600080fd5b60007fffffffff0000000000000000000000000000000000000000000000000000000082169050919050565b61177781611742565b811461178257600080fd5b50565b6000813590506117948161176e565b92915050565b6000602082840312156117b0576117af611738565b5b60006117be84828501611785565b91505092915050565b60008115159050919050565b6117dc816117c7565b82525050565b60006020820190506117f760008301846117d3565b92915050565b600081519050919050565b600082825260208201905092915050565b60005b8381101561183757808201518184015260208101905061181c565b83811115611846576000848401525b50505050565b6000601f19601f8301169050919050565b6000611868826117fd565b6118728185611808565b9350611882818560208601611819565b61188b8161184c565b840191505092915050565b600060208201905081810360008301526118b0818461185d565b905092915050565b6000819050919050565b6118cb816118b8565b81146118d657600080fd5b50565b6000813590506118e8816118c2565b92915050565b60006020828403121561190457611903611738565b5b6000611912848285016118d9565b91505092915050565b600073ffffffffffffffffffffffffffffffffffffffff82169050919050565b60006119468261191b565b9050919050565b6119568161193b565b82525050565b6000602082019050611971600083018461194d565b92915050565b6119808161193b565b811461198b57600080fd5b50565b60008135905061199d81611977565b92915050565b600080604083850312156119ba576119b9611738565b5b60006119c88582860161198e565b92505060206119d9858286016118d9565b9150509250929050565b6119ec816118b8565b82525050565b6000602082019050611a0760008301846119e3565b92915050565b600080600060608486031215611a2657611a25611738565b5b6000611a348682870161198e565b9350506020611a458682870161198e565b9250506040611a56868287016118d9565b9150509250925092565b600060208284031215611a7657611a75611738565b5b6000611a848482850161198e565b91505092915050565b611a96816117c7565b8114611aa157600080fd5b50565b600081359050611ab381611a8d565b92915050565b60008060408385031215611ad057611acf611738565b5b6000611ade8582860161198e565b9250506020611aef85828601611aa4565b9150509250929050565b600080fd5b600080fd5b7f4e487b7100000000000000000000000000000000000000000000000000000000600052604160045260246000fd5b611b3b8261184c565b810181811067ffffffffffffffff82111715611b5a57611b59611b03565b5b80604052505050565b6000611b6d61172e565b9050611b798282611b32565b919050565b600067ffffffffffffffff821115611b9957611b98611b03565b5b611ba28261184c565b9050602081019050919050565b82818337600083830152505050565b6000611bd1611bcc84611b7e565b611b63565b905082815260208101848484011115611bed57611bec611afe565b5b611bf8848285611baf565b509392505050565b600082601f830112611c1557611c14611af9565b5b8135611c25848260208601611bbe565b91505092915050565b60008060008060808587031215611c4857611c47611738565b5b6000611c568782880161198e565b9450506020611c678782880161198e565b9350506040611c78878288016118d9565b925050606085013567ffffffffffffffff811115611c9957611c9861173d565b5b611ca587828801611c00565b91505092959194509250565b60008060408385031215611cc857611cc7611738565b5b6000611cd68582860161198e565b9250506020611ce78582860161198e565b9150509250929050565b7f4e487b7100000000000000000000000000000000000000000000000000000000600052602260045260246000fd5b60006002820490506001821680611d3857607f821691505b60208210811415611d4c57611d4b611cf1565b5b50919050565b7f43616e20626520706572666f726d6564206f6e6c7920627920746865206f776e60008201527f65722e0000000000000000000000000000000000000000000000000000000000602082015250565b6000611dae602383611808565b9150611db982611d52565b604082019050919050565b60006020820190508181036000830152611ddd81611da1565b9050919050565b7f4e487b7100000000000000000000000000000000000000000000000000000000600052601160045260246000fd5b6000611e1e826118b8565b9150611e29836118b8565b9250827fffffffffffffffffffffffffffffffffffffffffffffffffffffffffffffffff03821115611e5e57611e5d611de4565b5b828201905092915050565b7f4d6178696d756d206e756d626572206f6620746f6b656e732072656163686564600082015250565b6000611e9f602083611808565b9150611eaa82611e69565b602082019050919050565b60006020820190508181036000830152611ece81611e92565b9050919050565b600081905092915050565b6000611eeb826117fd565b611ef58185611ed5565b9350611f05818560208601611819565b80840191505092915050565b6000611f1d8285611ee0565b9150611f298284611ee0565b91508190509392505050565b600081519050919050565b600082825260208201905092915050565b6000611f5c82611f35565b611f668185611f40565b9350611f76818560208601611819565b611f7f8161184c565b840191505092915050565b6000608082019050611f9f600083018761194d565b611fac602083018661194d565b611fb960408301856119e3565b8181036060830152611fcb8184611f51565b905095945050505050565b600081519050611fe58161176e565b92915050565b60006020828403121561200157612000611738565b5b600061200f84828501611fd6565b9150509291505056fea26469706673582212201e484d57500256b323fa7ba623d3a1c1fce975d3ae994019b864c0792dd05fb964736f6c6343000809003368747470733a2f2f676174657761792e70696e6174612e636c6f75642f697066732f516d615331796f77433865756152487a4354796253746b6e6f75426e47636d6d6358327a6e666547777a5571664a2f",
  "linkReferences": {},
  "deployedLinkReferences": {}
}